{
  "contractName": "InvestmentTracker",
  "abi": [
    {
      "inputs": [
        {
          "internalType": "uint256",
          "name": "_tokenamount",
          "type": "uint256"
        },
        {
          "internalType": "address",
          "name": "_MindPayAddress",
          "type": "address"
        }
      ],
      "stateMutability": "payable",
      "type": "constructor"
    },
    {
      "anonymous": false,
      "inputs": [
        {
          "indexed": false,
          "internalType": "address",
          "name": "liquid_contract",
          "type": "address"
        },
        {
          "indexed": false,
          "internalType": "address",
          "name": "owner",
          "type": "address"
        },
        {
          "indexed": false,
          "internalType": "uint256",
          "name": "EthTRansferred",
          "type": "uint256"
        }
      ],
      "name": "LiquidEtherTransfer",
      "type": "event"
    },
    {
      "anonymous": false,
      "inputs": [
        {
          "indexed": false,
          "internalType": "address",
          "name": "reserve_contract",
          "type": "address"
        },
        {
          "indexed": false,
          "internalType": "address",
          "name": "owner",
          "type": "address"
        },
        {
          "indexed": false,
          "internalType": "uint256",
          "name": "EthTRansferred",
          "type": "uint256"
        }
      ],
      "name": "ReserveEtherTransfer",
      "type": "event"
    },
    {
      "inputs": [],
      "name": "bonus_tokens",
      "outputs": [
        {
          "internalType": "uint256",
          "name": "",
          "type": "uint256"
        }
      ],
      "stateMutability": "view",
      "type": "function"
    },
    {
      "inputs": [],
      "name": "investedAmount",
      "outputs": [
        {
          "internalType": "uint256",
          "name": "",
          "type": "uint256"
        }
      ],
      "stateMutability": "view",
      "type": "function"
    },
    {
      "inputs": [
        {
          "internalType": "uint256",
          "name": "",
          "type": "uint256"
        }
      ],
      "name": "liquid_investments",
      "outputs": [
        {
          "internalType": "address",
          "name": "",
          "type": "address"
        }
      ],
      "stateMutability": "view",
      "type": "function"
    },
    {
      "inputs": [],
      "name": "liquidity_amount",
      "outputs": [
        {
          "internalType": "uint256",
          "name": "",
          "type": "uint256"
        }
      ],
      "stateMutability": "view",
      "type": "function"
    },
    {
      "inputs": [],
      "name": "owner",
      "outputs": [
        {
          "internalType": "address",
          "name": "",
          "type": "address"
        }
      ],
      "stateMutability": "view",
      "type": "function"
    },
    {
      "inputs": [],
      "name": "reserve_amount",
      "outputs": [
        {
          "internalType": "uint256",
          "name": "",
          "type": "uint256"
        }
      ],
      "stateMutability": "view",
      "type": "function"
    },
    {
      "inputs": [
        {
          "internalType": "uint256",
          "name": "",
          "type": "uint256"
        }
      ],
      "name": "reserve_investments",
      "outputs": [
        {
          "internalType": "address",
          "name": "",
          "type": "address"
        }
      ],
      "stateMutability": "view",
      "type": "function"
    },
    {
      "inputs": [],
      "name": "token_amount",
      "outputs": [
        {
          "internalType": "uint256",
          "name": "",
          "type": "uint256"
        }
      ],
      "stateMutability": "view",
      "type": "function"
    },
    {
      "inputs": [],
      "name": "token_balance",
      "outputs": [
        {
          "internalType": "uint256",
          "name": "",
          "type": "uint256"
        }
      ],
      "stateMutability": "view",
      "type": "function"
    },
    {
      "stateMutability": "payable",
      "type": "receive"
    },
    {
      "inputs": [],
      "name": "processInvestment",
      "outputs": [],
      "stateMutability": "nonpayable",
      "type": "function"
    },
    {
      "inputs": [],
      "name": "transferReserveEther",
      "outputs": [],
      "stateMutability": "nonpayable",
      "type": "function"
    },
    {
      "inputs": [
        {
          "internalType": "contract IERC20",
          "name": "MindPayToken",
          "type": "address"
        }
      ],
      "name": "transferReserveTokens",
      "outputs": [],
      "stateMutability": "nonpayable",
      "type": "function"
    },
    {
      "inputs": [],
      "name": "getBonusTokens",
      "outputs": [
        {
          "internalType": "uint256",
          "name": "",
          "type": "uint256"
        }
      ],
      "stateMutability": "nonpayable",
      "type": "function"
    },
    {
      "inputs": [],
      "name": "transferliquidAssets",
      "outputs": [],
      "stateMutability": "nonpayable",
      "type": "function"
    },
    {
      "inputs": [],
      "name": "getEtherBalance",
      "outputs": [
        {
          "internalType": "uint256",
          "name": "",
          "type": "uint256"
        }
      ],
      "stateMutability": "view",
      "type": "function"
    },
    {
      "inputs": [
        {
          "internalType": "contract IERC20",
          "name": "MindPayToken",
          "type": "address"
        }
      ],
      "name": "getTokenBalance",
      "outputs": [
        {
          "internalType": "uint256",
          "name": "",
          "type": "uint256"
        }
      ],
      "stateMutability": "view",
      "type": "function"
    },
    {
      "inputs": [],
      "name": "getReserveInvestmentContractBalance",
      "outputs": [
        {
          "internalType": "address",
          "name": "",
          "type": "address"
        },
        {
          "internalType": "uint256",
          "name": "",
          "type": "uint256"
        },
        {
          "internalType": "uint256",
          "name": "",
          "type": "uint256"
        },
        {
          "internalType": "uint256",
          "name": "",
          "type": "uint256"
        },
        {
          "internalType": "uint256",
          "name": "",
          "type": "uint256"
        }
      ],
      "stateMutability": "view",
      "type": "function"
    },
    {
      "inputs": [],
      "name": "getLiquidContractBalance",
      "outputs": [
        {
          "internalType": "address",
          "name": "",
          "type": "address"
        },
        {
          "internalType": "uint256",
          "name": "",
          "type": "uint256"
        },
        {
          "internalType": "uint256",
          "name": "",
          "type": "uint256"
        }
      ],
      "stateMutability": "view",
      "type": "function"
    },
    {
      "inputs": [],
      "name": "cancelInvestment",
      "outputs": [
        {
          "internalType": "bool",
          "name": "cancellation_success",
          "type": "bool"
        }
      ],
      "stateMutability": "nonpayable",
      "type": "function"
    },
    {
      "inputs": [],
      "name": "stakeInvestment",
      "outputs": [
        {
          "internalType": "bool",
          "name": "cancellation_success",
          "type": "bool"
        }
      ],
      "stateMutability": "nonpayable",
      "type": "function"
    }
  ],
  "bytecode": "0x608060405260405162002df238038062002df283398181016040528101906200002991906200027a565b33600360006101000a81548173ffffffffffffffffffffffffffffffffffffffff021916908373ffffffffffffffffffffffffffffffffffffffff160217905550346002819055508160078190555080600960006101000a81548173ffffffffffffffffffffffffffffffffffffffff021916908373ffffffffffffffffffffffffffffffffffffffff16021790555033604051620000c890620001b9565b620000d49190620002d2565b604051809103906000f080158015620000f1573d6000803e3d6000fd5b50600b60006101000a81548173ffffffffffffffffffffffffffffffffffffffff021916908373ffffffffffffffffffffffffffffffffffffffff16021790555033600654306040516200014590620001c7565b620001539392919062000300565b604051809103906000f08015801562000170573d6000803e3d6000fd5b50600a60006101000a81548173ffffffffffffffffffffffffffffffffffffffff021916908373ffffffffffffffffffffffffffffffffffffffff16021790555050506200033d565b61059c8062001d3b83390190565b610b1b80620022d783390190565b600080fd5b6000819050919050565b620001ef81620001da565b8114620001fb57600080fd5b50565b6000815190506200020f81620001e4565b92915050565b600073ffffffffffffffffffffffffffffffffffffffff82169050919050565b6000620002428262000215565b9050919050565b620002548162000235565b81146200026057600080fd5b50565b600081519050620002748162000249565b92915050565b60008060408385031215620002945762000293620001d5565b5b6000620002a485828601620001fe565b9250506020620002b78582860162000263565b9150509250929050565b620002cc8162000235565b82525050565b6000602082019050620002e96000830184620002c1565b92915050565b620002fa81620001da565b82525050565b6000606082019050620003176000830186620002c1565b620003266020830185620002ef565b620003356040830184620002c1565b949350505050565b6119ee806200034d6000396000f3fe6080604052600436106101235760003560e01c80638da5cb5b116100a0578063c3c0164e11610064578063c3c0164e1461039c578063c581a6af146103d9578063ca50c38f14610408578063ea46193e14610433578063eaab45971461045e5761012a565b80638da5cb5b146102c957806394f8e954146102f4578063961a21e51461031f578063b38b0b1814610348578063ba6c17d11461035f5761012a565b8063318d8af2116100e7578063318d8af2146101f25780633aecd0e31461020957806354f6c0db146102465780635ff0988f146102715780637d1b720a1461029e5761012a565b80630ab1e6031461012f57806311ac1efd1461015a57806313972238146101855780631555c92a146101b057806324370bd4146101c75761012a565b3661012a57005b600080fd5b34801561013b57600080fd5b50610144610489565b604051610151919061100b565b60405180910390f35b34801561016657600080fd5b5061016f6105f5565b60405161017c919061103f565b60405180910390f35b34801561019157600080fd5b5061019a6105fb565b6040516101a7919061103f565b60405180910390f35b3480156101bc57600080fd5b506101c5610601565b005b3480156101d357600080fd5b506101dc61079d565b6040516101e9919061103f565b60405180910390f35b3480156101fe57600080fd5b506102076107a3565b005b34801561021557600080fd5b50610230600480360381019061022b91906110cf565b6107f7565b60405161023d919061103f565b60405180910390f35b34801561025257600080fd5b5061025b610879565b604051610268919061103f565b60405180910390f35b34801561027d57600080fd5b5061028661087f565b6040516102959392919061110b565b60405180910390f35b3480156102aa57600080fd5b506102b3610920565b6040516102c0919061103f565b60405180910390f35b3480156102d557600080fd5b506102de610926565b6040516102eb9190611142565b60405180910390f35b34801561030057600080fd5b5061030961094c565b604051610316919061100b565b60405180910390f35b34801561032b57600080fd5b50610346600480360381019061034191906110cf565b610a94565b005b34801561035457600080fd5b5061035d610c7c565b005b34801561036b57600080fd5b5061038660048036038101906103819190611189565b610e18565b6040516103939190611142565b60405180910390f35b3480156103a857600080fd5b506103c360048036038101906103be9190611189565b610e57565b6040516103d09190611142565b60405180910390f35b3480156103e557600080fd5b506103ee610e96565b6040516103ff9594939291906111b6565b60405180910390f35b34801561041457600080fd5b5061041d610f40565b60405161042a919061103f565b60405180910390f35b34801561043f57600080fd5b50610448610fe2565b604051610455919061103f565b60405180910390f35b34801561046a57600080fd5b50610473610fea565b604051610480919061103f565b60405180910390f35b60003373ffffffffffffffffffffffffffffffffffffffff16600360009054906101000a900473ffffffffffffffffffffffffffffffffffffffff1673ffffffffffffffffffffffffffffffffffffffff161461051b576040517f08c379a0000000000000000000000000000000000000000000000000000000008152600401610512906112b2565b60405180910390fd5b600a60009054906101000a900473ffffffffffffffffffffffffffffffffffffffff1673ffffffffffffffffffffffffffffffffffffffff16637fbba9eb600360009054906101000a900473ffffffffffffffffffffffffffffffffffffffff16600960009054906101000a900473ffffffffffffffffffffffffffffffffffffffff166040518363ffffffff1660e01b81526004016105bc929190611331565b600060405180830381600087803b1580156105d657600080fd5b505af11580156105ea573d6000803e3d6000fd5b505050506001905090565b60085481565b60055481565b600554471015610646576040517f08c379a000000000000000000000000000000000000000000000000000000000815260040161063d906113cc565b60405180910390fd5b6001600b60009054906101000a900473ffffffffffffffffffffffffffffffffffffffff169080600181540180825580915050600190039060005260206000200160009091909190916101000a81548173ffffffffffffffffffffffffffffffffffffffff021916908373ffffffffffffffffffffffffffffffffffffffff1602179055506000600b60009054906101000a900473ffffffffffffffffffffffffffffffffffffffff1690508073ffffffffffffffffffffffffffffffffffffffff166108fc6005549081150290604051600060405180830381858888f1935050505015801561073a573d6000803e3d6000fd5b507f13546aa2e576eaeec16d8bc4b5e127733a7581d78346607876888eba8d21fc8d81600360009054906101000a900473ffffffffffffffffffffffffffffffffffffffff166005546040516107929392919061140d565b60405180910390a150565b60045481565b6064600254605a6107b49190611473565b6107be91906114fc565b6004819055506064600254600a6107d59190611473565b6107df91906114fc565b6005819055506107ed610c7c565b6107f5610601565b565b60008173ffffffffffffffffffffffffffffffffffffffff166370a08231306040518263ffffffff1660e01b81526004016108329190611142565b602060405180830381865afa15801561084f573d6000803e3d6000fd5b505050506040513d601f19601f820116820180604052508101906108739190611542565b50919050565b60075481565b6000806000600b60009054906101000a900473ffffffffffffffffffffffffffffffffffffffff1673ffffffffffffffffffffffffffffffffffffffff16633ff1e05b6040518163ffffffff1660e01b8152600401606060405180830381865afa1580156108f1573d6000803e3d6000fd5b505050506040513d601f19601f82011682018060405250810190610915919061159b565b925092509250909192565b60065481565b600360009054906101000a900473ffffffffffffffffffffffffffffffffffffffff1681565b60003373ffffffffffffffffffffffffffffffffffffffff16600360009054906101000a900473ffffffffffffffffffffffffffffffffffffffff1673ffffffffffffffffffffffffffffffffffffffff16146109de576040517f08c379a00000000000000000000000000000000000000000000000000000000081526004016109d590611686565b60405180910390fd5b600a60009054906101000a900473ffffffffffffffffffffffffffffffffffffffff1673ffffffffffffffffffffffffffffffffffffffff166306bc6562600360009054906101000a900473ffffffffffffffffffffffffffffffffffffffff166040518263ffffffff1660e01b8152600401610a5b9190611142565b600060405180830381600087803b158015610a7557600080fd5b505af1158015610a89573d6000803e3d6000fd5b505050506001905090565b600060075411610ad9576040517f08c379a0000000000000000000000000000000000000000000000000000000008152600401610ad090611718565b60405180910390fd5b610ae1610f40565b600754610aee9190611738565b6007819055508073ffffffffffffffffffffffffffffffffffffffff166370a08231306040518263ffffffff1660e01b8152600401610b2d9190611142565b602060405180830381865afa158015610b4a573d6000803e3d6000fd5b505050506040513d601f19601f82011682018060405250810190610b6e9190611542565b60068190555060075460065411610bba576040517f08c379a0000000000000000000000000000000000000000000000000000000008152600401610bb1906117da565b60405180910390fd5b8073ffffffffffffffffffffffffffffffffffffffff1663a9059cbb60008081548110610bea57610be96117fa565b5b9060005260206000200160009054906101000a900473ffffffffffffffffffffffffffffffffffffffff166007546040518363ffffffff1660e01b8152600401610c35929190611829565b6020604051808303816000875af1158015610c54573d6000803e3d6000fd5b505050506040513d601f19601f82011682018060405250810190610c78919061187e565b5050565b600454471015610cc1576040517f08c379a0000000000000000000000000000000000000000000000000000000008152600401610cb89061191d565b60405180910390fd5b6000600a60009054906101000a900473ffffffffffffffffffffffffffffffffffffffff169080600181540180825580915050600190039060005260206000200160009091909190916101000a81548173ffffffffffffffffffffffffffffffffffffffff021916908373ffffffffffffffffffffffffffffffffffffffff1602179055506000600a60009054906101000a900473ffffffffffffffffffffffffffffffffffffffff1690508073ffffffffffffffffffffffffffffffffffffffff166108fc6004549081150290604051600060405180830381858888f19350505050158015610db5573d6000803e3d6000fd5b507f80718e74c945936b5e26721449f54e48e9d62ee0037ada1ffd4f835c22707ecc81600360009054906101000a900473ffffffffffffffffffffffffffffffffffffffff16600454604051610e0d9392919061140d565b60405180910390a150565b60008181548110610e2857600080fd5b906000526020600020016000915054906101000a900473ffffffffffffffffffffffffffffffffffffffff1681565b60018181548110610e6757600080fd5b906000526020600020016000915054906101000a900473ffffffffffffffffffffffffffffffffffffffff1681565b6000806000806000600a60009054906101000a900473ffffffffffffffffffffffffffffffffffffffff1673ffffffffffffffffffffffffffffffffffffffff16633ff1e05b6040518163ffffffff1660e01b815260040160a060405180830381865afa158015610f0b573d6000803e3d6000fd5b505050506040513d601f19601f82011682018060405250810190610f2f919061193d565b945094509450945094509091929394565b6000670de0b6b3a7640000600254118015610f645750674563918244f40000600254105b15610f94576064600754600a610f7a9190611473565b610f8491906114fc565b6008819055506008549050610fdf565b674563918244f400006002541115610fd15760646007546014610fb79190611473565b610fc191906114fc565b6008819055506008549050610fdf565b600060088190555060085490505b90565b600047905090565b60025481565b60008115159050919050565b61100581610ff0565b82525050565b60006020820190506110206000830184610ffc565b92915050565b6000819050919050565b61103981611026565b82525050565b60006020820190506110546000830184611030565b92915050565b600080fd5b600073ffffffffffffffffffffffffffffffffffffffff82169050919050565b600061108a8261105f565b9050919050565b600061109c8261107f565b9050919050565b6110ac81611091565b81146110b757600080fd5b50565b6000813590506110c9816110a3565b92915050565b6000602082840312156110e5576110e461105a565b5b60006110f3848285016110ba565b91505092915050565b6111058161107f565b82525050565b600060608201905061112060008301866110fc565b61112d6020830185611030565b61113a6040830184611030565b949350505050565b600060208201905061115760008301846110fc565b92915050565b61116681611026565b811461117157600080fd5b50565b6000813590506111838161115d565b92915050565b60006020828403121561119f5761119e61105a565b5b60006111ad84828501611174565b91505092915050565b600060a0820190506111cb60008301886110fc565b6111d86020830187611030565b6111e56040830186611030565b6111f26060830185611030565b6111ff6080830184611030565b9695505050505050565b600082825260208201905092915050565b7f596f7520617265206e6f7420746865206f776e65722e20596f7520617265206e60008201527f6f7420616c6c6f77656420746f207374616b65207468697320696e766573746d60208201527f656e740000000000000000000000000000000000000000000000000000000000604082015250565b600061129c604383611209565b91506112a78261121a565b606082019050919050565b600060208201905081810360008301526112cb8161128f565b9050919050565b6000819050919050565b60006112f76112f26112ed8461105f565b6112d2565b61105f565b9050919050565b6000611309826112dc565b9050919050565b600061131b826112fe565b9050919050565b61132b81611310565b82525050565b600060408201905061134660008301856110fc565b6113536020830184611322565b9392505050565b7f4572726f7220696e2063616c63756c6174696e67204c6971756964697479206160008201527f6d6f756e74000000000000000000000000000000000000000000000000000000602082015250565b60006113b6602583611209565b91506113c18261135a565b604082019050919050565b600060208201905081810360008301526113e5816113a9565b9050919050565b60006113f7826112fe565b9050919050565b611407816113ec565b82525050565b600060608201905061142260008301866113fe565b61142f60208301856110fc565b61143c6040830184611030565b949350505050565b7f4e487b7100000000000000000000000000000000000000000000000000000000600052601160045260246000fd5b600061147e82611026565b915061148983611026565b9250817fffffffffffffffffffffffffffffffffffffffffffffffffffffffffffffffff04831182151516156114c2576114c1611444565b5b828202905092915050565b7f4e487b7100000000000000000000000000000000000000000000000000000000600052601260045260246000fd5b600061150782611026565b915061151283611026565b925082611522576115216114cd565b5b828204905092915050565b60008151905061153c8161115d565b92915050565b6000602082840312156115585761155761105a565b5b60006115668482850161152d565b91505092915050565b6115788161107f565b811461158357600080fd5b50565b6000815190506115958161156f565b92915050565b6000806000606084860312156115b4576115b361105a565b5b60006115c286828701611586565b93505060206115d38682870161152d565b92505060406115e48682870161152d565b9150509250925092565b7f596f7520617265206e6f7420746865206f776e65722e20596f7520617265206e60008201527f6f7420616c6c6f77656420746f2063616e63656c207468697320696e7665737460208201527f6d656e7400000000000000000000000000000000000000000000000000000000604082015250565b6000611670604483611209565b915061167b826115ee565b606082019050919050565b6000602082019050818103600083015261169f81611663565b9050919050565b7f506c6561736520656e7465722074686520616d6f756e74206f6620746f6b656e60008201527f7320796f752077616e7420746f20627579000000000000000000000000000000602082015250565b6000611702603183611209565b915061170d826116a6565b604082019050919050565b60006020820190508181036000830152611731816116f5565b9050919050565b600061174382611026565b915061174e83611026565b9250827fffffffffffffffffffffffffffffffffffffffffffffffffffffffffffffffff0382111561178357611782611444565b5b828201905092915050565b7f4e6f7420656e6f75676820746f6b656e7320696e207468652072657365727665600082015250565b60006117c4602083611209565b91506117cf8261178e565b602082019050919050565b600060208201905081810360008301526117f3816117b7565b9050919050565b7f4e487b7100000000000000000000000000000000000000000000000000000000600052603260045260246000fd5b600060408201905061183e60008301856110fc565b61184b6020830184611030565b9392505050565b61185b81610ff0565b811461186657600080fd5b50565b60008151905061187881611852565b92915050565b6000602082840312156118945761189361105a565b5b60006118a284828501611869565b91505092915050565b7f4572726f7220696e2063616c63756c6174696e67207265736572766520616d6f60008201527f756e740000000000000000000000000000000000000000000000000000000000602082015250565b6000611907602383611209565b9150611912826118ab565b604082019050919050565b60006020820190508181036000830152611936816118fa565b9050919050565b600080600080600060a086880312156119595761195861105a565b5b600061196788828901611586565b95505060206119788882890161152d565b94505060406119898882890161152d565b935050606061199a8882890161152d565b92505060806119ab8882890161152d565b915050929550929590935056fea2646970667358221220810796090306feba63ccdcbcd84b201e938105ffda204049d1d8467b7c95243064736f6c634300080d0033608060405234801561001057600080fd5b5060405161059c38038061059c833981810160405281019061003291906100e2565b806000806101000a81548173ffffffffffffffffffffffffffffffffffffffff021916908373ffffffffffffffffffffffffffffffffffffffff160217905550426001819055505061010f565b600080fd5b600073ffffffffffffffffffffffffffffffffffffffff82169050919050565b60006100af82610084565b9050919050565b6100bf816100a4565b81146100ca57600080fd5b50565b6000815190506100dc816100b6565b92915050565b6000602082840312156100f8576100f761007f565b5b6000610106848285016100cd565b91505092915050565b61047e8061011e6000396000f3fe6080604052600436106100435760003560e01c80632f8655681461004f5780633ff1e05b146100785780638da5cb5b146100a5578063cf09e0d0146100d05761004a565b3661004a57005b600080fd5b34801561005b57600080fd5b50610076600480360381019061007191906102bd565b6100fb565b005b34801561008457600080fd5b5061008d6101fa565b60405161009c93929190610312565b60405180910390f35b3480156100b157600080fd5b506100ba610230565b6040516100c79190610349565b60405180910390f35b3480156100dc57600080fd5b506100e5610254565b6040516100f29190610364565b60405180910390f35b60008054906101000a900473ffffffffffffffffffffffffffffffffffffffff1673ffffffffffffffffffffffffffffffffffffffff168173ffffffffffffffffffffffffffffffffffffffff1614610189576040517f08c379a000000000000000000000000000000000000000000000000000000000815260040161018090610428565b60405180910390fd5b60008060009054906101000a900473ffffffffffffffffffffffffffffffffffffffff1690508073ffffffffffffffffffffffffffffffffffffffff166108fc479081150290604051600060405180830381858888f193505050501580156101f5573d6000803e3d6000fd5b505050565b60008060008060009054906101000a900473ffffffffffffffffffffffffffffffffffffffff1660015447925092509250909192565b60008054906101000a900473ffffffffffffffffffffffffffffffffffffffff1681565b60015481565b600080fd5b600073ffffffffffffffffffffffffffffffffffffffff82169050919050565b600061028a8261025f565b9050919050565b61029a8161027f565b81146102a557600080fd5b50565b6000813590506102b781610291565b92915050565b6000602082840312156102d3576102d261025a565b5b60006102e1848285016102a8565b91505092915050565b6102f38161027f565b82525050565b6000819050919050565b61030c816102f9565b82525050565b600060608201905061032760008301866102ea565b6103346020830185610303565b6103416040830184610303565b949350505050565b600060208201905061035e60008301846102ea565b92915050565b60006020820190506103796000830184610303565b92915050565b600082825260208201905092915050565b7f596f7520617265206e6f7420746865206f776e65722e20596f7520617265206e60008201527f6f7420616c6c6f77656420746f2063616e63656c207468697320696e7665737460208201527f6d656e7400000000000000000000000000000000000000000000000000000000604082015250565b600061041260448361037f565b915061041d82610390565b606082019050919050565b6000602082019050818103600083015261044181610405565b905091905056fea26469706673582212205230104a3afeaa192ab8830eba5540798aafa5c9b29f5b203f645906a0a31c6664736f6c634300080d003360806040523480156200001157600080fd5b5060405162000b1b38038062000b1b83398181016040528101906200003791906200018c565b826000806101000a81548173ffffffffffffffffffffffffffffffffffffffff021916908373ffffffffffffffffffffffffffffffffffffffff1602179055504260018190555061038460015462000090919062000217565b6002819055508160038190555080600460006101000a81548173ffffffffffffffffffffffffffffffffffffffff021916908373ffffffffffffffffffffffffffffffffffffffff16021790555050505062000274565b600080fd5b600073ffffffffffffffffffffffffffffffffffffffff82169050919050565b60006200011982620000ec565b9050919050565b6200012b816200010c565b81146200013757600080fd5b50565b6000815190506200014b8162000120565b92915050565b6000819050919050565b620001668162000151565b81146200017257600080fd5b50565b60008151905062000186816200015b565b92915050565b600080600060608486031215620001a857620001a7620000e7565b5b6000620001b8868287016200013a565b9350506020620001cb8682870162000175565b9250506040620001de868287016200013a565b9150509250925092565b7f4e487b7100000000000000000000000000000000000000000000000000000000600052601160045260246000fd5b6000620002248262000151565b9150620002318362000151565b9250827fffffffffffffffffffffffffffffffffffffffffffffffffffffffffffffffff03821115620002695762000268620001e8565b5b828201905092915050565b61089780620002846000396000f3fe60806040526004361061007f5760003560e01c80638da5cb5b1161004e5780638da5cb5b146101375780639e1a4d1914610162578063a69df4b51461018d578063cf09e0d0146101b857610086565b806306bc65621461008b5780633ff1e05b146100b45780637fbba9eb146100e3578063851073671461010c57610086565b3661008657005b600080fd5b34801561009757600080fd5b506100b260048036038101906100ad91906104f6565b6101e3565b005b3480156100c057600080fd5b506100c9610298565b6040516100da95949392919061054b565b60405180910390f35b3480156100ef57600080fd5b5061010a600480360381019061010591906105dc565b6102dd565b005b34801561011857600080fd5b50610121610437565b60405161012e919061061c565b60405180910390f35b34801561014357600080fd5b5061014c61045d565b604051610159919061061c565b60405180910390f35b34801561016e57600080fd5b50610177610481565b6040516101849190610637565b60405180910390f35b34801561019957600080fd5b506101a2610487565b6040516101af9190610637565b60405180910390f35b3480156101c457600080fd5b506101cd61048d565b6040516101da9190610637565b60405180910390f35b6002544211610227576040517f08c379a000000000000000000000000000000000000000000000000000000000815260040161021e906106fb565b60405180910390fd5b60008060009054906101000a900473ffffffffffffffffffffffffffffffffffffffff1690508073ffffffffffffffffffffffffffffffffffffffff166108fc479081150290604051600060405180830381858888f19350505050158015610293573d6000803e3d6000fd5b505050565b60008060008060008060009054906101000a900473ffffffffffffffffffffffffffffffffffffffff1660025460015447600354945094509450945094509091929394565b6002544211610321576040517f08c379a0000000000000000000000000000000000000000000000000000000008152600401610318906107b3565b60405180910390fd5b6000600460009054906101000a900473ffffffffffffffffffffffffffffffffffffffff1690508073ffffffffffffffffffffffffffffffffffffffff166108fc479081150290604051600060405180830381858888f1935050505015801561038e573d6000803e3d6000fd5b508173ffffffffffffffffffffffffffffffffffffffff1663a9059cbb600460009054906101000a900473ffffffffffffffffffffffffffffffffffffffff166003546040518363ffffffff1660e01b81526004016103ee9291906107d3565b6020604051808303816000875af115801561040d573d6000803e3d6000fd5b505050506040513d601f19601f820116820180604052508101906104319190610834565b50505050565b600460009054906101000a900473ffffffffffffffffffffffffffffffffffffffff1681565b60008054906101000a900473ffffffffffffffffffffffffffffffffffffffff1681565b60035481565b60025481565b60015481565b600080fd5b600073ffffffffffffffffffffffffffffffffffffffff82169050919050565b60006104c382610498565b9050919050565b6104d3816104b8565b81146104de57600080fd5b50565b6000813590506104f0816104ca565b92915050565b60006020828403121561050c5761050b610493565b5b600061051a848285016104e1565b91505092915050565b61052c816104b8565b82525050565b6000819050919050565b61054581610532565b82525050565b600060a0820190506105606000830188610523565b61056d602083018761053c565b61057a604083018661053c565b610587606083018561053c565b610594608083018461053c565b9695505050505050565b60006105a9826104b8565b9050919050565b6105b98161059e565b81146105c457600080fd5b50565b6000813590506105d6816105b0565b92915050565b600080604083850312156105f3576105f2610493565b5b6000610601858286016104e1565b9250506020610612858286016105c7565b9150509250929050565b60006020820190506106316000830184610523565b92915050565b600060208201905061064c600083018461053c565b92915050565b600082825260208201905092915050565b7f54686520636f6e7472616374206973206c6f636b65642e20596f752063616e6e60008201527f6f74206c6971756961746520796f7572206173736574732074696c6c2074686560208201527f206c6f636b20706572696f6420697320636f6d706c6574650000000000000000604082015250565b60006106e5605883610652565b91506106f082610663565b606082019050919050565b60006020820190508181036000830152610714816106d8565b9050919050565b7f54686520636f6e7472616374206973206c6f636b65642e20596f752063616e6e60008201527f6f74207374616b6520796f7572206173736574732074696c6c20746865206c6f60208201527f636b20706572696f6420697320636f6d706c6574650000000000000000000000604082015250565b600061079d605583610652565b91506107a88261071b565b606082019050919050565b600060208201905081810360008301526107cc81610790565b9050919050565b60006040820190506107e86000830185610523565b6107f5602083018461053c565b9392505050565b60008115159050919050565b610811816107fc565b811461081c57600080fd5b50565b60008151905061082e81610808565b92915050565b60006020828403121561084a57610849610493565b5b60006108588482850161081f565b9150509291505056fea264697066735822122098e5b781c45553d3965c613fef7cbad276adc0983bc8702c1c7665557373bd1f64736f6c634300080d0033",
  "immutableReferences": {},
  "source": "//SPDX-License-Identifier: UNLICENSED\r\n\r\npragma solidity >=0.4.0;\r\n\r\nimport \"./MindPay.sol\";\r\nimport \"./ReserveContract.sol\";\r\nimport \"./LiquidityContract.sol\";\r\n\r\ncontract InvestmentTracker{\r\n\r\n    address[] public reserve_investments;\r\n    address[] public liquid_investments;\r\n    uint256 public investedAmount;\r\n    address public owner;\r\n    uint256 public reserve_amount;\r\n    uint256 public liquidity_amount;\r\n    uint256 public token_balance; //current contract token balance\r\n    uint256 public token_amount; // tokens invested\r\n    uint256 public bonus_tokens;\r\n\r\n    MindPay MPYToken;\r\n    ReserveContract new_investment_reserve;\r\n    LiquidContract new_investment_liquidity;\r\n    \r\n    event ReserveEtherTransfer(address reserve_contract,address owner,uint EthTRansferred);\r\n    event LiquidEtherTransfer(address liquid_contract,address owner,uint EthTRansferred);\r\n     \r\n    constructor(uint256 _tokenamount, address _MindPayAddress) public payable {\r\n      owner = msg.sender;\r\n      investedAmount = msg.value;\r\n      token_amount = _tokenamount;\r\n      MPYToken = MindPay(_MindPayAddress);\r\n      new_investment_liquidity = new LiquidContract(msg.sender);\r\n      new_investment_reserve = new ReserveContract(msg.sender ,token_balance,address(this));    \r\n    }\r\n\r\n    function processInvestment() public {       \r\n        reserve_amount = ((90 * investedAmount) / 100);\r\n        liquidity_amount = ((10 * investedAmount)/ 100);\r\n        transferReserveEther();\r\n        transferliquidAssets();\r\n        // transferReserveTokens(MPYToken);\r\n    }\r\n\r\n    function transferReserveEther() public {\r\n        require(address(this).balance >= reserve_amount,\"Error in calculating reserve amount\");\r\n        reserve_investments.push(payable(new_investment_reserve));\r\n        address payable _reserve = payable(new_investment_reserve);\r\n        _reserve.transfer(reserve_amount);   \r\n        emit ReserveEtherTransfer(_reserve,owner,reserve_amount);\r\n    }\r\n\r\n    function transferReserveTokens(IERC20 MindPayToken) public {\r\n        require(token_amount > 0,\"Please enter the amount of tokens you want to buy\");\r\n        token_amount = token_amount + getBonusTokens();\r\n        token_balance = MindPayToken.balanceOf(address(this));\r\n        require(token_balance > token_amount,\"Not enough tokens in the reserve\");\r\n        MindPayToken.transfer(reserve_investments[0], token_amount);\r\n        // emit TransferSent(msg.sender,new_investment_reserve, token_amount);\r\n\r\n    }\r\n\r\n    function getBonusTokens() public returns(uint){\r\n        if( investedAmount > 1 * 10**18  &&  investedAmount < 5 * 10**18) {   // if else statement\r\n            bonus_tokens = ((10 * token_amount) / 100);\r\n            return bonus_tokens;\r\n        } else if( investedAmount > 5 * 10**18 ){\r\n            bonus_tokens = ((20 * token_amount) / 100);\r\n            return bonus_tokens;\r\n        } else {\r\n            bonus_tokens = 0;\r\n            return bonus_tokens;\r\n        }\r\n    }\r\n\r\n    function transferliquidAssets() public {\r\n        require(address(this).balance >= liquidity_amount,\"Error in calculating Liquidity amount\");\r\n        liquid_investments.push(payable(new_investment_liquidity));\r\n        address payable _liquid = payable(new_investment_liquidity);\r\n        _liquid.transfer(liquidity_amount);\r\n        emit LiquidEtherTransfer(_liquid,owner,liquidity_amount);\r\n    }\r\n\r\n    function getEtherBalance() public view returns(uint){\r\n        return address(this).balance;\r\n    }\r\n\r\n    function getTokenBalance(IERC20 MindPayToken) public view returns(uint){\r\n        MindPayToken.balanceOf(address(this));\r\n    }\r\n\r\n    function getReserveInvestmentContractBalance()public view returns(address , uint , uint , uint , uint){\r\n        return new_investment_reserve.viewBalance();\r\n    }\r\n\r\n    function getLiquidContractBalance()public view returns(address, uint, uint){\r\n        return new_investment_liquidity.viewBalance();\r\n    }\r\n\r\n    // function createInvestment(uint256 _tokenamount) public returns(address payable){\r\n    //         InvestmentContract new_investment_reserve = new InvestmentContract(msg.sender, _tokenamount);\r\n    //         investments.push(payable(new_investment_reserve));\r\n    //         return (payable(new_investment_reserve));\r\n    // }\r\n\r\n    function cancelInvestment()public returns(bool cancellation_success){\r\n            require(owner == msg.sender, \"You are not the owner. You are not allowed to cancel this investment\");\r\n            new_investment_reserve.cancelInvestment(owner);\r\n            return true;\r\n    }\r\n\r\n    function stakeInvestment()public returns(bool cancellation_success){\r\n            require(owner == msg.sender, \"You are not the owner. You are not allowed to stake this investment\");\r\n            new_investment_reserve.stakeInvestment(owner, MPYToken);\r\n            return true;\r\n    }\r\n\r\n    receive() external payable{\r\n\r\n    }\r\n\r\n}\r\n\r\n\r\n",
  "sourcePath": "D:\\Work\\Code\\Blockchain\\Projects\\MindDeft\\contracts\\InvestmentTracker.sol",
  "compiler": {
    "name": "solc",
    "version": "0.8.13+commit.abaa5c0e.Emscripten.clang"
  },
  "schemaVersion": "3.4.4",
  "updatedAt": "2022-05-02T20:11:01.372Z",
  "devdoc": {
    "kind": "dev",
    "methods": {},
    "version": 1
  },
  "userdoc": {
    "kind": "user",
    "methods": {},
    "version": 1
  }
}