{
  "contractName": "LiquidContract",
  "abi": [
    {
      "inputs": [
        {
          "internalType": "address",
          "name": "investor",
          "type": "address"
        }
      ],
      "stateMutability": "nonpayable",
      "type": "constructor"
    },
    {
      "inputs": [],
      "name": "createdAt",
      "outputs": [
        {
          "internalType": "uint256",
          "name": "",
          "type": "uint256"
        }
      ],
      "stateMutability": "view",
      "type": "function"
    },
    {
      "inputs": [],
      "name": "owner",
      "outputs": [
        {
          "internalType": "address",
          "name": "",
          "type": "address"
        }
      ],
      "stateMutability": "view",
      "type": "function"
    },
    {
      "stateMutability": "payable",
      "type": "receive"
    },
    {
      "inputs": [],
      "name": "viewBalance",
      "outputs": [
        {
          "internalType": "address",
          "name": "",
          "type": "address"
        },
        {
          "internalType": "uint256",
          "name": "",
          "type": "uint256"
        },
        {
          "internalType": "uint256",
          "name": "",
          "type": "uint256"
        }
      ],
      "stateMutability": "view",
      "type": "function"
    },
    {
      "inputs": [
        {
          "internalType": "address",
          "name": "investor",
          "type": "address"
        }
      ],
      "name": "liquidate",
      "outputs": [],
      "stateMutability": "nonpayable",
      "type": "function"
    }
  ],
  "bytecode": "0x608060405234801561001057600080fd5b5060405161059c38038061059c833981810160405281019061003291906100e2565b806000806101000a81548173ffffffffffffffffffffffffffffffffffffffff021916908373ffffffffffffffffffffffffffffffffffffffff160217905550426001819055505061010f565b600080fd5b600073ffffffffffffffffffffffffffffffffffffffff82169050919050565b60006100af82610084565b9050919050565b6100bf816100a4565b81146100ca57600080fd5b50565b6000815190506100dc816100b6565b92915050565b6000602082840312156100f8576100f761007f565b5b6000610106848285016100cd565b91505092915050565b61047e8061011e6000396000f3fe6080604052600436106100435760003560e01c80632f8655681461004f5780633ff1e05b146100785780638da5cb5b146100a5578063cf09e0d0146100d05761004a565b3661004a57005b600080fd5b34801561005b57600080fd5b50610076600480360381019061007191906102bd565b6100fb565b005b34801561008457600080fd5b5061008d6101fa565b60405161009c93929190610312565b60405180910390f35b3480156100b157600080fd5b506100ba610230565b6040516100c79190610349565b60405180910390f35b3480156100dc57600080fd5b506100e5610254565b6040516100f29190610364565b60405180910390f35b60008054906101000a900473ffffffffffffffffffffffffffffffffffffffff1673ffffffffffffffffffffffffffffffffffffffff168173ffffffffffffffffffffffffffffffffffffffff1614610189576040517f08c379a000000000000000000000000000000000000000000000000000000000815260040161018090610428565b60405180910390fd5b60008060009054906101000a900473ffffffffffffffffffffffffffffffffffffffff1690508073ffffffffffffffffffffffffffffffffffffffff166108fc479081150290604051600060405180830381858888f193505050501580156101f5573d6000803e3d6000fd5b505050565b60008060008060009054906101000a900473ffffffffffffffffffffffffffffffffffffffff1660015447925092509250909192565b60008054906101000a900473ffffffffffffffffffffffffffffffffffffffff1681565b60015481565b600080fd5b600073ffffffffffffffffffffffffffffffffffffffff82169050919050565b600061028a8261025f565b9050919050565b61029a8161027f565b81146102a557600080fd5b50565b6000813590506102b781610291565b92915050565b6000602082840312156102d3576102d261025a565b5b60006102e1848285016102a8565b91505092915050565b6102f38161027f565b82525050565b6000819050919050565b61030c816102f9565b82525050565b600060608201905061032760008301866102ea565b6103346020830185610303565b6103416040830184610303565b949350505050565b600060208201905061035e60008301846102ea565b92915050565b60006020820190506103796000830184610303565b92915050565b600082825260208201905092915050565b7f596f7520617265206e6f7420746865206f776e65722e20596f7520617265206e60008201527f6f7420616c6c6f77656420746f2063616e63656c207468697320696e7665737460208201527f6d656e7400000000000000000000000000000000000000000000000000000000604082015250565b600061041260448361037f565b915061041d82610390565b606082019050919050565b6000602082019050818103600083015261044181610405565b905091905056fea26469706673582212205230104a3afeaa192ab8830eba5540798aafa5c9b29f5b203f645906a0a31c6664736f6c634300080d0033",
  "immutableReferences": {},
  "source": "//SPDX-License-Identifier: UNLICENSED\r\n\r\npragma solidity >=0.4.0;\r\n\r\ncontract LiquidContract {\r\n\r\n    address public owner;\r\n    uint public createdAt;\r\n\r\n    constructor(address investor) public {\r\n            owner = investor;\r\n            createdAt = block.timestamp;\r\n        }\r\n  \r\n    function viewBalance() public view returns(address, uint, uint) {\r\n        return (owner, createdAt, address(this).balance);\r\n    }\r\n\r\n    function liquidate(address investor) public {\r\n        require(investor == owner, \"You are not the owner. You are not allowed to cancel this investment\");\r\n        address payable to = payable(owner);\r\n        to.transfer(address(this).balance);\r\n    }\r\n\r\n    receive() external payable{\r\n\r\n    }\r\n}   ",
  "sourcePath": "D:\\Work\\Code\\Blockchain\\Projects\\MindDeft\\contracts\\LiquidityContract.sol",
  "compiler": {
    "name": "solc",
    "version": "0.8.13+commit.abaa5c0e.Emscripten.clang"
  },
  "schemaVersion": "3.4.4",
  "updatedAt": "2022-05-01T17:40:47.570Z",
  "devdoc": {
    "kind": "dev",
    "methods": {},
    "version": 1
  },
  "userdoc": {
    "kind": "user",
    "methods": {},
    "version": 1
  }
}