{
  "contractName": "ReserveContract",
  "abi": [
    {
      "inputs": [
        {
          "internalType": "address",
          "name": "investor",
          "type": "address"
        },
        {
          "internalType": "uint256",
          "name": "_tokenBalance",
          "type": "uint256"
        },
        {
          "internalType": "address",
          "name": "_parent",
          "type": "address"
        }
      ],
      "stateMutability": "nonpayable",
      "type": "constructor"
    },
    {
      "inputs": [],
      "name": "createdAt",
      "outputs": [
        {
          "internalType": "uint256",
          "name": "",
          "type": "uint256"
        }
      ],
      "stateMutability": "view",
      "type": "function"
    },
    {
      "inputs": [],
      "name": "owner",
      "outputs": [
        {
          "internalType": "address",
          "name": "",
          "type": "address"
        }
      ],
      "stateMutability": "view",
      "type": "function"
    },
    {
      "inputs": [],
      "name": "stakeAddress",
      "outputs": [
        {
          "internalType": "address",
          "name": "",
          "type": "address"
        }
      ],
      "stateMutability": "view",
      "type": "function"
    },
    {
      "inputs": [],
      "name": "tokenBalance",
      "outputs": [
        {
          "internalType": "uint256",
          "name": "",
          "type": "uint256"
        }
      ],
      "stateMutability": "view",
      "type": "function"
    },
    {
      "inputs": [],
      "name": "unlock",
      "outputs": [
        {
          "internalType": "uint256",
          "name": "",
          "type": "uint256"
        }
      ],
      "stateMutability": "view",
      "type": "function"
    },
    {
      "stateMutability": "payable",
      "type": "receive"
    },
    {
      "inputs": [],
      "name": "viewBalance",
      "outputs": [
        {
          "internalType": "address",
          "name": "",
          "type": "address"
        },
        {
          "internalType": "uint256",
          "name": "",
          "type": "uint256"
        },
        {
          "internalType": "uint256",
          "name": "",
          "type": "uint256"
        },
        {
          "internalType": "uint256",
          "name": "",
          "type": "uint256"
        },
        {
          "internalType": "uint256",
          "name": "",
          "type": "uint256"
        }
      ],
      "stateMutability": "view",
      "type": "function"
    },
    {
      "inputs": [
        {
          "internalType": "address",
          "name": "investor",
          "type": "address"
        }
      ],
      "name": "cancelInvestment",
      "outputs": [],
      "stateMutability": "nonpayable",
      "type": "function"
    },
    {
      "inputs": [
        {
          "internalType": "address",
          "name": "investor",
          "type": "address"
        },
        {
          "internalType": "contract IERC20",
          "name": "MindPayToken",
          "type": "address"
        }
      ],
      "name": "stakeInvestment",
      "outputs": [],
      "stateMutability": "nonpayable",
      "type": "function"
    }
  ],
  "bytecode": "0x60806040523480156200001157600080fd5b5060405162000b1b38038062000b1b83398181016040528101906200003791906200018c565b826000806101000a81548173ffffffffffffffffffffffffffffffffffffffff021916908373ffffffffffffffffffffffffffffffffffffffff1602179055504260018190555061038460015462000090919062000217565b6002819055508160038190555080600460006101000a81548173ffffffffffffffffffffffffffffffffffffffff021916908373ffffffffffffffffffffffffffffffffffffffff16021790555050505062000274565b600080fd5b600073ffffffffffffffffffffffffffffffffffffffff82169050919050565b60006200011982620000ec565b9050919050565b6200012b816200010c565b81146200013757600080fd5b50565b6000815190506200014b8162000120565b92915050565b6000819050919050565b620001668162000151565b81146200017257600080fd5b50565b60008151905062000186816200015b565b92915050565b600080600060608486031215620001a857620001a7620000e7565b5b6000620001b8868287016200013a565b9350506020620001cb8682870162000175565b9250506040620001de868287016200013a565b9150509250925092565b7f4e487b7100000000000000000000000000000000000000000000000000000000600052601160045260246000fd5b6000620002248262000151565b9150620002318362000151565b9250827fffffffffffffffffffffffffffffffffffffffffffffffffffffffffffffffff03821115620002695762000268620001e8565b5b828201905092915050565b61089780620002846000396000f3fe60806040526004361061007f5760003560e01c80638da5cb5b1161004e5780638da5cb5b146101375780639e1a4d1914610162578063a69df4b51461018d578063cf09e0d0146101b857610086565b806306bc65621461008b5780633ff1e05b146100b45780637fbba9eb146100e3578063851073671461010c57610086565b3661008657005b600080fd5b34801561009757600080fd5b506100b260048036038101906100ad91906104f6565b6101e3565b005b3480156100c057600080fd5b506100c9610298565b6040516100da95949392919061054b565b60405180910390f35b3480156100ef57600080fd5b5061010a600480360381019061010591906105dc565b6102dd565b005b34801561011857600080fd5b50610121610437565b60405161012e919061061c565b60405180910390f35b34801561014357600080fd5b5061014c61045d565b604051610159919061061c565b60405180910390f35b34801561016e57600080fd5b50610177610481565b6040516101849190610637565b60405180910390f35b34801561019957600080fd5b506101a2610487565b6040516101af9190610637565b60405180910390f35b3480156101c457600080fd5b506101cd61048d565b6040516101da9190610637565b60405180910390f35b6002544211610227576040517f08c379a000000000000000000000000000000000000000000000000000000000815260040161021e906106fb565b60405180910390fd5b60008060009054906101000a900473ffffffffffffffffffffffffffffffffffffffff1690508073ffffffffffffffffffffffffffffffffffffffff166108fc479081150290604051600060405180830381858888f19350505050158015610293573d6000803e3d6000fd5b505050565b60008060008060008060009054906101000a900473ffffffffffffffffffffffffffffffffffffffff1660025460015447600354945094509450945094509091929394565b6002544211610321576040517f08c379a0000000000000000000000000000000000000000000000000000000008152600401610318906107b3565b60405180910390fd5b6000600460009054906101000a900473ffffffffffffffffffffffffffffffffffffffff1690508073ffffffffffffffffffffffffffffffffffffffff166108fc479081150290604051600060405180830381858888f1935050505015801561038e573d6000803e3d6000fd5b508173ffffffffffffffffffffffffffffffffffffffff1663a9059cbb600460009054906101000a900473ffffffffffffffffffffffffffffffffffffffff166003546040518363ffffffff1660e01b81526004016103ee9291906107d3565b6020604051808303816000875af115801561040d573d6000803e3d6000fd5b505050506040513d601f19601f820116820180604052508101906104319190610834565b50505050565b600460009054906101000a900473ffffffffffffffffffffffffffffffffffffffff1681565b60008054906101000a900473ffffffffffffffffffffffffffffffffffffffff1681565b60035481565b60025481565b60015481565b600080fd5b600073ffffffffffffffffffffffffffffffffffffffff82169050919050565b60006104c382610498565b9050919050565b6104d3816104b8565b81146104de57600080fd5b50565b6000813590506104f0816104ca565b92915050565b60006020828403121561050c5761050b610493565b5b600061051a848285016104e1565b91505092915050565b61052c816104b8565b82525050565b6000819050919050565b61054581610532565b82525050565b600060a0820190506105606000830188610523565b61056d602083018761053c565b61057a604083018661053c565b610587606083018561053c565b610594608083018461053c565b9695505050505050565b60006105a9826104b8565b9050919050565b6105b98161059e565b81146105c457600080fd5b50565b6000813590506105d6816105b0565b92915050565b600080604083850312156105f3576105f2610493565b5b6000610601858286016104e1565b9250506020610612858286016105c7565b9150509250929050565b60006020820190506106316000830184610523565b92915050565b600060208201905061064c600083018461053c565b92915050565b600082825260208201905092915050565b7f54686520636f6e7472616374206973206c6f636b65642e20596f752063616e6e60008201527f6f74206c6971756961746520796f7572206173736574732074696c6c2074686560208201527f206c6f636b20706572696f6420697320636f6d706c6574650000000000000000604082015250565b60006106e5605883610652565b91506106f082610663565b606082019050919050565b60006020820190508181036000830152610714816106d8565b9050919050565b7f54686520636f6e7472616374206973206c6f636b65642e20596f752063616e6e60008201527f6f74207374616b6520796f7572206173736574732074696c6c20746865206c6f60208201527f636b20706572696f6420697320636f6d706c6574650000000000000000000000604082015250565b600061079d605583610652565b91506107a88261071b565b606082019050919050565b600060208201905081810360008301526107cc81610790565b9050919050565b60006040820190506107e86000830185610523565b6107f5602083018461053c565b9392505050565b60008115159050919050565b610811816107fc565b811461081c57600080fd5b50565b60008151905061082e81610808565b92915050565b60006020828403121561084a57610849610493565b5b60006108588482850161081f565b9150509291505056fea264697066735822122098e5b781c45553d3965c613fef7cbad276adc0983bc8702c1c7665557373bd1f64736f6c634300080d0033",
  "immutableReferences": {},
  "source": "//SPDX-License-Identifier: UNLICENSED\r\n\r\npragma solidity >=0.4.0;\r\n\r\nimport \"@openzeppelin/contracts/token/ERC20/IERC20.sol\";\r\n\r\ncontract ReserveContract {\r\n\r\n    address public owner;\r\n    uint public createdAt;\r\n    uint public unlock;\r\n    uint public tokenBalance;\r\n    address public stakeAddress;\r\n    \r\n\r\n    constructor(address investor, uint _tokenBalance,address _parent ) public {\r\n            owner = investor;\r\n            createdAt = block.timestamp;\r\n            unlock = createdAt + 15 minutes;\r\n            tokenBalance = _tokenBalance;\r\n            stakeAddress = _parent;\r\n            \r\n        }\r\n  \r\n    function viewBalance() public view returns(address, uint, uint, uint, uint) {\r\n        return (owner, unlock, createdAt, address(this).balance, tokenBalance);\r\n    }\r\n\r\n    function cancelInvestment(address investor) public {\r\n        require(block.timestamp > unlock, \"The contract is locked. You cannot liquiate your assets till the lock period is complete\");\r\n        address payable to = payable(owner);\r\n        to.transfer(address(this).balance);\r\n    }\r\n\r\n    function stakeInvestment(address investor,IERC20 MindPayToken) public {\r\n        require(block.timestamp > unlock, \"The contract is locked. You cannot stake your assets till the lock period is complete\");\r\n        address payable to = payable(stakeAddress);\r\n        to.transfer(address(this).balance);\r\n        MindPayToken.transfer(stakeAddress,tokenBalance);\r\n    }\r\n\r\n    receive() external payable{\r\n\r\n    }\r\n}\r\n\r\n",
  "sourcePath": "D:\\Work\\Code\\Blockchain\\Projects\\MindDeft\\contracts\\ReserveContract.sol",
  "compiler": {
    "name": "solc",
    "version": "0.8.13+commit.abaa5c0e.Emscripten.clang"
  },
  "schemaVersion": "3.4.4",
  "updatedAt": "2022-05-02T20:11:01.428Z",
  "devdoc": {
    "kind": "dev",
    "methods": {},
    "version": 1
  },
  "userdoc": {
    "kind": "user",
    "methods": {},
    "version": 1
  }
}