{
  "contractName": "TimeWallet",
  "abi": [
    {
      "inputs": [
        {
          "internalType": "uint256",
          "name": "_tokenamount",
          "type": "uint256"
        },
        {
          "internalType": "address",
          "name": "_MindPayAddress",
          "type": "address"
        }
      ],
      "stateMutability": "payable",
      "type": "constructor"
    },
    {
      "inputs": [],
      "name": "bonus_tokens",
      "outputs": [
        {
          "internalType": "uint256",
          "name": "",
          "type": "uint256"
        }
      ],
      "stateMutability": "view",
      "type": "function"
    },
    {
      "inputs": [],
      "name": "investedAmount",
      "outputs": [
        {
          "internalType": "uint256",
          "name": "",
          "type": "uint256"
        }
      ],
      "stateMutability": "view",
      "type": "function"
    },
    {
      "inputs": [
        {
          "internalType": "uint256",
          "name": "",
          "type": "uint256"
        }
      ],
      "name": "liquid_investments",
      "outputs": [
        {
          "internalType": "address",
          "name": "",
          "type": "address"
        }
      ],
      "stateMutability": "view",
      "type": "function"
    },
    {
      "inputs": [],
      "name": "liquidity_amount",
      "outputs": [
        {
          "internalType": "uint256",
          "name": "",
          "type": "uint256"
        }
      ],
      "stateMutability": "view",
      "type": "function"
    },
    {
      "inputs": [],
      "name": "owner",
      "outputs": [
        {
          "internalType": "address",
          "name": "",
          "type": "address"
        }
      ],
      "stateMutability": "view",
      "type": "function"
    },
    {
      "inputs": [],
      "name": "reserve_amount",
      "outputs": [
        {
          "internalType": "uint256",
          "name": "",
          "type": "uint256"
        }
      ],
      "stateMutability": "view",
      "type": "function"
    },
    {
      "inputs": [
        {
          "internalType": "uint256",
          "name": "",
          "type": "uint256"
        }
      ],
      "name": "reserve_investments",
      "outputs": [
        {
          "internalType": "address",
          "name": "",
          "type": "address"
        }
      ],
      "stateMutability": "view",
      "type": "function"
    },
    {
      "inputs": [],
      "name": "token_amount",
      "outputs": [
        {
          "internalType": "uint256",
          "name": "",
          "type": "uint256"
        }
      ],
      "stateMutability": "view",
      "type": "function"
    },
    {
      "inputs": [],
      "name": "token_balance",
      "outputs": [
        {
          "internalType": "uint256",
          "name": "",
          "type": "uint256"
        }
      ],
      "stateMutability": "view",
      "type": "function"
    },
    {
      "stateMutability": "payable",
      "type": "receive"
    },
    {
      "inputs": [],
      "name": "processInvestment",
      "outputs": [],
      "stateMutability": "nonpayable",
      "type": "function"
    },
    {
      "inputs": [],
      "name": "transferReserveEther",
      "outputs": [],
      "stateMutability": "nonpayable",
      "type": "function"
    },
    {
      "inputs": [
        {
          "internalType": "contract IERC20",
          "name": "MindPayToken",
          "type": "address"
        }
      ],
      "name": "transferReserveTokens",
      "outputs": [],
      "stateMutability": "nonpayable",
      "type": "function"
    },
    {
      "inputs": [],
      "name": "getBonusTokens",
      "outputs": [
        {
          "internalType": "uint256",
          "name": "",
          "type": "uint256"
        }
      ],
      "stateMutability": "nonpayable",
      "type": "function"
    },
    {
      "inputs": [],
      "name": "transferliquidAssets",
      "outputs": [],
      "stateMutability": "nonpayable",
      "type": "function"
    },
    {
      "inputs": [],
      "name": "getEtherBalance",
      "outputs": [
        {
          "internalType": "uint256",
          "name": "",
          "type": "uint256"
        }
      ],
      "stateMutability": "view",
      "type": "function"
    },
    {
      "inputs": [
        {
          "internalType": "contract IERC20",
          "name": "MindPayToken",
          "type": "address"
        }
      ],
      "name": "getTokenBalance",
      "outputs": [
        {
          "internalType": "uint256",
          "name": "",
          "type": "uint256"
        }
      ],
      "stateMutability": "view",
      "type": "function"
    },
    {
      "inputs": [],
      "name": "getReserveInvestmentContractBalance",
      "outputs": [
        {
          "internalType": "address",
          "name": "",
          "type": "address"
        },
        {
          "internalType": "uint256",
          "name": "",
          "type": "uint256"
        },
        {
          "internalType": "uint256",
          "name": "",
          "type": "uint256"
        },
        {
          "internalType": "uint256",
          "name": "",
          "type": "uint256"
        },
        {
          "internalType": "uint256",
          "name": "",
          "type": "uint256"
        }
      ],
      "stateMutability": "view",
      "type": "function"
    },
    {
      "inputs": [],
      "name": "getLiquidContractBalance",
      "outputs": [
        {
          "internalType": "address",
          "name": "",
          "type": "address"
        },
        {
          "internalType": "uint256",
          "name": "",
          "type": "uint256"
        },
        {
          "internalType": "uint256",
          "name": "",
          "type": "uint256"
        }
      ],
      "stateMutability": "view",
      "type": "function"
    },
    {
      "inputs": [],
      "name": "cancelInvestment",
      "outputs": [
        {
          "internalType": "bool",
          "name": "cancellation_success",
          "type": "bool"
        }
      ],
      "stateMutability": "nonpayable",
      "type": "function"
    },
    {
      "inputs": [],
      "name": "stakeInvestment",
      "outputs": [
        {
          "internalType": "bool",
          "name": "cancellation_success",
          "type": "bool"
        }
      ],
      "stateMutability": "nonpayable",
      "type": "function"
    }
  ],
  "bytecode": "0x608060405260405162002d3e38038062002d3e8339818101604052810190620000299190620002be565b33600360006101000a81548173ffffffffffffffffffffffffffffffffffffffff021916908373ffffffffffffffffffffffffffffffffffffffff160217905550346002819055508160078190555080600960006101000a81548173ffffffffffffffffffffffffffffffffffffffff021916908373ffffffffffffffffffffffffffffffffffffffff16021790555033604051620000c890620001fd565b620000d4919062000316565b604051809103906000f080158015620000f1573d6000803e3d6000fd5b50600b60006101000a81548173ffffffffffffffffffffffffffffffffffffffff021916908373ffffffffffffffffffffffffffffffffffffffff160217905550336006543060016000815481106200014f576200014e62000333565b5b9060005260206000200160009054906101000a900473ffffffffffffffffffffffffffffffffffffffff1660405162000188906200020b565b62000197949392919062000373565b604051809103906000f080158015620001b4573d6000803e3d6000fd5b50600a60006101000a81548173ffffffffffffffffffffffffffffffffffffffff021916908373ffffffffffffffffffffffffffffffffffffffff1602179055505050620003c0565b61059c8062001a4183390190565b610d618062001fdd83390190565b600080fd5b6000819050919050565b62000233816200021e565b81146200023f57600080fd5b50565b600081519050620002538162000228565b92915050565b600073ffffffffffffffffffffffffffffffffffffffff82169050919050565b6000620002868262000259565b9050919050565b620002988162000279565b8114620002a457600080fd5b50565b600081519050620002b8816200028d565b92915050565b60008060408385031215620002d857620002d762000219565b5b6000620002e88582860162000242565b9250506020620002fb85828601620002a7565b9150509250929050565b620003108162000279565b82525050565b60006020820190506200032d600083018462000305565b92915050565b7f4e487b7100000000000000000000000000000000000000000000000000000000600052603260045260246000fd5b6200036d816200021e565b82525050565b60006080820190506200038a600083018762000305565b62000399602083018662000362565b620003a8604083018562000305565b620003b7606083018462000305565b95945050505050565b61167180620003d06000396000f3fe6080604052600436106101235760003560e01c80638da5cb5b116100a0578063c3c0164e11610064578063c3c0164e1461039c578063c581a6af146103d9578063ca50c38f14610408578063ea46193e14610433578063eaab45971461045e5761012a565b80638da5cb5b146102c957806394f8e954146102f4578063961a21e51461031f578063b38b0b1814610348578063ba6c17d11461035f5761012a565b8063318d8af2116100e7578063318d8af2146101f25780633aecd0e31461020957806354f6c0db146102465780635ff0988f146102715780637d1b720a1461029e5761012a565b80630ab1e6031461012f57806311ac1efd1461015a57806313972238146101855780631555c92a146101b057806324370bd4146101c75761012a565b3661012a57005b600080fd5b34801561013b57600080fd5b50610144610489565b6040516101519190610e56565b60405180910390f35b34801561016657600080fd5b5061016f610565565b60405161017c9190610e8a565b60405180910390f35b34801561019157600080fd5b5061019a61056b565b6040516101a79190610e8a565b60405180910390f35b3480156101bc57600080fd5b506101c5610571565b005b3480156101d357600080fd5b506101dc6106ad565b6040516101e99190610e8a565b60405180910390f35b3480156101fe57600080fd5b506102076106b3565b005b34801561021557600080fd5b50610230600480360381019061022b9190610f1a565b610732565b60405161023d9190610e8a565b60405180910390f35b34801561025257600080fd5b5061025b6107b4565b6040516102689190610e8a565b60405180910390f35b34801561027d57600080fd5b506102866107ba565b60405161029593929190610f56565b60405180910390f35b3480156102aa57600080fd5b506102b361085b565b6040516102c09190610e8a565b60405180910390f35b3480156102d557600080fd5b506102de610861565b6040516102eb9190610f8d565b60405180910390f35b34801561030057600080fd5b50610309610887565b6040516103169190610e56565b60405180910390f35b34801561032b57600080fd5b5061034660048036038101906103419190610f1a565b61093f565b005b34801561035457600080fd5b5061035d610b27565b005b34801561036b57600080fd5b5061038660048036038101906103819190610fd4565b610c63565b6040516103939190610f8d565b60405180910390f35b3480156103a857600080fd5b506103c360048036038101906103be9190610fd4565b610ca2565b6040516103d09190610f8d565b60405180910390f35b3480156103e557600080fd5b506103ee610ce1565b6040516103ff959493929190611001565b60405180910390f35b34801561041457600080fd5b5061041d610d8b565b60405161042a9190610e8a565b60405180910390f35b34801561043f57600080fd5b50610448610e2d565b6040516104559190610e8a565b60405180910390f35b34801561046a57600080fd5b50610473610e35565b6040516104809190610e8a565b60405180910390f35b6000600a60009054906101000a900473ffffffffffffffffffffffffffffffffffffffff1673ffffffffffffffffffffffffffffffffffffffff16637fbba9eb600360009054906101000a900473ffffffffffffffffffffffffffffffffffffffff16600960009054906101000a900473ffffffffffffffffffffffffffffffffffffffff166040518363ffffffff1660e01b815260040161052c9291906110b3565b600060405180830381600087803b15801561054657600080fd5b505af115801561055a573d6000803e3d6000fd5b505050506001905090565b60085481565b60055481565b60055447116105b5576040517f08c379a00000000000000000000000000000000000000000000000000000000081526004016105ac9061115f565b60405180910390fd5b6001600b60009054906101000a900473ffffffffffffffffffffffffffffffffffffffff169080600181540180825580915050600190039060005260206000200160009091909190916101000a81548173ffffffffffffffffffffffffffffffffffffffff021916908373ffffffffffffffffffffffffffffffffffffffff1602179055506000600b60009054906101000a900473ffffffffffffffffffffffffffffffffffffffff1690508073ffffffffffffffffffffffffffffffffffffffff166108fc6005549081150290604051600060405180830381858888f193505050501580156106a9573d6000803e3d6000fd5b5050565b60045481565b6064600254605a6106c491906111ae565b6106ce9190611237565b6004819055506064600254600a6106e591906111ae565b6106ef9190611237565b6005819055506106fd610b27565b610705610571565b610730600960009054906101000a900473ffffffffffffffffffffffffffffffffffffffff1661093f565b565b60008173ffffffffffffffffffffffffffffffffffffffff166370a08231306040518263ffffffff1660e01b815260040161076d9190610f8d565b602060405180830381865afa15801561078a573d6000803e3d6000fd5b505050506040513d601f19601f820116820180604052508101906107ae919061127d565b50919050565b60075481565b6000806000600b60009054906101000a900473ffffffffffffffffffffffffffffffffffffffff1673ffffffffffffffffffffffffffffffffffffffff16633ff1e05b6040518163ffffffff1660e01b8152600401606060405180830381865afa15801561082c573d6000803e3d6000fd5b505050506040513d601f19601f8201168201806040525081019061085091906112d6565b925092509250909192565b60065481565b600360009054906101000a900473ffffffffffffffffffffffffffffffffffffffff1681565b6000600a60009054906101000a900473ffffffffffffffffffffffffffffffffffffffff1673ffffffffffffffffffffffffffffffffffffffff166306bc6562600360009054906101000a900473ffffffffffffffffffffffffffffffffffffffff166040518263ffffffff1660e01b81526004016109069190610f8d565b600060405180830381600087803b15801561092057600080fd5b505af1158015610934573d6000803e3d6000fd5b505050506001905090565b600060075411610984576040517f08c379a000000000000000000000000000000000000000000000000000000000815260040161097b9061139b565b60405180910390fd5b61098c610d8b565b60075461099991906113bb565b6007819055508073ffffffffffffffffffffffffffffffffffffffff166370a08231306040518263ffffffff1660e01b81526004016109d89190610f8d565b602060405180830381865afa1580156109f5573d6000803e3d6000fd5b505050506040513d601f19601f82011682018060405250810190610a19919061127d565b60068190555060075460065411610a65576040517f08c379a0000000000000000000000000000000000000000000000000000000008152600401610a5c9061145d565b60405180910390fd5b8073ffffffffffffffffffffffffffffffffffffffff1663a9059cbb60008081548110610a9557610a9461147d565b5b9060005260206000200160009054906101000a900473ffffffffffffffffffffffffffffffffffffffff166007546040518363ffffffff1660e01b8152600401610ae09291906114ac565b6020604051808303816000875af1158015610aff573d6000803e3d6000fd5b505050506040513d601f19601f82011682018060405250810190610b239190611501565b5050565b6004544714610b6b576040517f08c379a0000000000000000000000000000000000000000000000000000000008152600401610b62906115a0565b60405180910390fd5b6000600a60009054906101000a900473ffffffffffffffffffffffffffffffffffffffff169080600181540180825580915050600190039060005260206000200160009091909190916101000a81548173ffffffffffffffffffffffffffffffffffffffff021916908373ffffffffffffffffffffffffffffffffffffffff1602179055506000600a60009054906101000a900473ffffffffffffffffffffffffffffffffffffffff1690508073ffffffffffffffffffffffffffffffffffffffff166108fc6004549081150290604051600060405180830381858888f19350505050158015610c5f573d6000803e3d6000fd5b5050565b60008181548110610c7357600080fd5b906000526020600020016000915054906101000a900473ffffffffffffffffffffffffffffffffffffffff1681565b60018181548110610cb257600080fd5b906000526020600020016000915054906101000a900473ffffffffffffffffffffffffffffffffffffffff1681565b6000806000806000600a60009054906101000a900473ffffffffffffffffffffffffffffffffffffffff1673ffffffffffffffffffffffffffffffffffffffff16633ff1e05b6040518163ffffffff1660e01b815260040160a060405180830381865afa158015610d56573d6000803e3d6000fd5b505050506040513d601f19601f82011682018060405250810190610d7a91906115c0565b945094509450945094509091929394565b6000670de0b6b3a7640000600254118015610daf5750674563918244f40000600254105b15610ddf576064600754600a610dc591906111ae565b610dcf9190611237565b6008819055506008549050610e2a565b674563918244f400006002541115610e1c5760646007546014610e0291906111ae565b610e0c9190611237565b6008819055506008549050610e2a565b600060088190555060085490505b90565b600047905090565b60025481565b60008115159050919050565b610e5081610e3b565b82525050565b6000602082019050610e6b6000830184610e47565b92915050565b6000819050919050565b610e8481610e71565b82525050565b6000602082019050610e9f6000830184610e7b565b92915050565b600080fd5b600073ffffffffffffffffffffffffffffffffffffffff82169050919050565b6000610ed582610eaa565b9050919050565b6000610ee782610eca565b9050919050565b610ef781610edc565b8114610f0257600080fd5b50565b600081359050610f1481610eee565b92915050565b600060208284031215610f3057610f2f610ea5565b5b6000610f3e84828501610f05565b91505092915050565b610f5081610eca565b82525050565b6000606082019050610f6b6000830186610f47565b610f786020830185610e7b565b610f856040830184610e7b565b949350505050565b6000602082019050610fa26000830184610f47565b92915050565b610fb181610e71565b8114610fbc57600080fd5b50565b600081359050610fce81610fa8565b92915050565b600060208284031215610fea57610fe9610ea5565b5b6000610ff884828501610fbf565b91505092915050565b600060a0820190506110166000830188610f47565b6110236020830187610e7b565b6110306040830186610e7b565b61103d6060830185610e7b565b61104a6080830184610e7b565b9695505050505050565b6000819050919050565b600061107961107461106f84610eaa565b611054565b610eaa565b9050919050565b600061108b8261105e565b9050919050565b600061109d82611080565b9050919050565b6110ad81611092565b82525050565b60006040820190506110c86000830185610f47565b6110d560208301846110a4565b9392505050565b600082825260208201905092915050565b7f4572726f7220696e2063616c63756c6174696e67204c6971756964697479206160008201527f6d6f756e74000000000000000000000000000000000000000000000000000000602082015250565b60006111496025836110dc565b9150611154826110ed565b604082019050919050565b600060208201905081810360008301526111788161113c565b9050919050565b7f4e487b7100000000000000000000000000000000000000000000000000000000600052601160045260246000fd5b60006111b982610e71565b91506111c483610e71565b9250817fffffffffffffffffffffffffffffffffffffffffffffffffffffffffffffffff04831182151516156111fd576111fc61117f565b5b828202905092915050565b7f4e487b7100000000000000000000000000000000000000000000000000000000600052601260045260246000fd5b600061124282610e71565b915061124d83610e71565b92508261125d5761125c611208565b5b828204905092915050565b60008151905061127781610fa8565b92915050565b60006020828403121561129357611292610ea5565b5b60006112a184828501611268565b91505092915050565b6112b381610eca565b81146112be57600080fd5b50565b6000815190506112d0816112aa565b92915050565b6000806000606084860312156112ef576112ee610ea5565b5b60006112fd868287016112c1565b935050602061130e86828701611268565b925050604061131f86828701611268565b9150509250925092565b7f506c6561736520656e7465722074686520616d6f756e74206f6620746f6b656e60008201527f7320796f752077616e7420746f20627579000000000000000000000000000000602082015250565b60006113856031836110dc565b915061139082611329565b604082019050919050565b600060208201905081810360008301526113b481611378565b9050919050565b60006113c682610e71565b91506113d183610e71565b9250827fffffffffffffffffffffffffffffffffffffffffffffffffffffffffffffffff038211156114065761140561117f565b5b828201905092915050565b7f4e6f7420656e6f75676820746f6b656e7320696e207468652072657365727665600082015250565b60006114476020836110dc565b915061145282611411565b602082019050919050565b600060208201905081810360008301526114768161143a565b9050919050565b7f4e487b7100000000000000000000000000000000000000000000000000000000600052603260045260246000fd5b60006040820190506114c16000830185610f47565b6114ce6020830184610e7b565b9392505050565b6114de81610e3b565b81146114e957600080fd5b50565b6000815190506114fb816114d5565b92915050565b60006020828403121561151757611516610ea5565b5b6000611525848285016114ec565b91505092915050565b7f4572726f7220696e2063616c63756c6174696e67207265736572766520616d6f60008201527f756e740000000000000000000000000000000000000000000000000000000000602082015250565b600061158a6023836110dc565b91506115958261152e565b604082019050919050565b600060208201905081810360008301526115b98161157d565b9050919050565b600080600080600060a086880312156115dc576115db610ea5565b5b60006115ea888289016112c1565b95505060206115fb88828901611268565b945050604061160c88828901611268565b935050606061161d88828901611268565b925050608061162e88828901611268565b915050929550929590935056fea26469706673582212209d5a785d9f83aeb4cfb0b1735facb0b9eefbe3b96422c681d97ab6efac4eb3b464736f6c634300080d0033608060405234801561001057600080fd5b5060405161059c38038061059c833981810160405281019061003291906100e2565b806000806101000a81548173ffffffffffffffffffffffffffffffffffffffff021916908373ffffffffffffffffffffffffffffffffffffffff160217905550426001819055505061010f565b600080fd5b600073ffffffffffffffffffffffffffffffffffffffff82169050919050565b60006100af82610084565b9050919050565b6100bf816100a4565b81146100ca57600080fd5b50565b6000815190506100dc816100b6565b92915050565b6000602082840312156100f8576100f761007f565b5b6000610106848285016100cd565b91505092915050565b61047e8061011e6000396000f3fe6080604052600436106100435760003560e01c80632f8655681461004f5780633ff1e05b146100785780638da5cb5b146100a5578063cf09e0d0146100d05761004a565b3661004a57005b600080fd5b34801561005b57600080fd5b50610076600480360381019061007191906102bd565b6100fb565b005b34801561008457600080fd5b5061008d6101fa565b60405161009c93929190610312565b60405180910390f35b3480156100b157600080fd5b506100ba610230565b6040516100c79190610349565b60405180910390f35b3480156100dc57600080fd5b506100e5610254565b6040516100f29190610364565b60405180910390f35b60008054906101000a900473ffffffffffffffffffffffffffffffffffffffff1673ffffffffffffffffffffffffffffffffffffffff168173ffffffffffffffffffffffffffffffffffffffff1614610189576040517f08c379a000000000000000000000000000000000000000000000000000000000815260040161018090610428565b60405180910390fd5b60008060009054906101000a900473ffffffffffffffffffffffffffffffffffffffff1690508073ffffffffffffffffffffffffffffffffffffffff166108fc479081150290604051600060405180830381858888f193505050501580156101f5573d6000803e3d6000fd5b505050565b60008060008060009054906101000a900473ffffffffffffffffffffffffffffffffffffffff1660015447925092509250909192565b60008054906101000a900473ffffffffffffffffffffffffffffffffffffffff1681565b60015481565b600080fd5b600073ffffffffffffffffffffffffffffffffffffffff82169050919050565b600061028a8261025f565b9050919050565b61029a8161027f565b81146102a557600080fd5b50565b6000813590506102b781610291565b92915050565b6000602082840312156102d3576102d261025a565b5b60006102e1848285016102a8565b91505092915050565b6102f38161027f565b82525050565b6000819050919050565b61030c816102f9565b82525050565b600060608201905061032760008301866102ea565b6103346020830185610303565b6103416040830184610303565b949350505050565b600060208201905061035e60008301846102ea565b92915050565b60006020820190506103796000830184610303565b92915050565b600082825260208201905092915050565b7f596f7520617265206e6f7420746865206f776e65722e20596f7520617265206e60008201527f6f7420616c6c6f77656420746f2063616e63656c207468697320696e7665737460208201527f6d656e7400000000000000000000000000000000000000000000000000000000604082015250565b600061041260448361037f565b915061041d82610390565b606082019050919050565b6000602082019050818103600083015261044181610405565b905091905056fea26469706673582212205230104a3afeaa192ab8830eba5540798aafa5c9b29f5b203f645906a0a31c6664736f6c634300080d003360806040523480156200001157600080fd5b5060405162000d6138038062000d618339818101604052810190620000379190620001cc565b836000806101000a81548173ffffffffffffffffffffffffffffffffffffffff021916908373ffffffffffffffffffffffffffffffffffffffff16021790555042600181905550610384426200008e91906200026d565b6002819055508260038190555081600460006101000a81548173ffffffffffffffffffffffffffffffffffffffff021916908373ffffffffffffffffffffffffffffffffffffffff16021790555080600560006101000a81548173ffffffffffffffffffffffffffffffffffffffff021916908373ffffffffffffffffffffffffffffffffffffffff16021790555050505050620002ca565b600080fd5b600073ffffffffffffffffffffffffffffffffffffffff82169050919050565b600062000159826200012c565b9050919050565b6200016b816200014c565b81146200017757600080fd5b50565b6000815190506200018b8162000160565b92915050565b6000819050919050565b620001a68162000191565b8114620001b257600080fd5b50565b600081519050620001c6816200019b565b92915050565b60008060008060808587031215620001e957620001e862000127565b5b6000620001f9878288016200017a565b94505060206200020c87828801620001b5565b93505060406200021f878288016200017a565b925050606062000232878288016200017a565b91505092959194509250565b7f4e487b7100000000000000000000000000000000000000000000000000000000600052601160045260246000fd5b60006200027a8262000191565b9150620002878362000191565b9250827fffffffffffffffffffffffffffffffffffffffffffffffffffffffffffffffff03821115620002bf57620002be6200023e565b5b828201905092915050565b610a8780620002da6000396000f3fe60806040526004361061008a5760003560e01c8063851073671161005957806385107367146101425780638da5cb5b1461016d5780639e1a4d1914610198578063a69df4b5146101c3578063cf09e0d0146101ee57610091565b806306bc6562146100965780633221c93f146100bf5780633ff1e05b146100ea5780637fbba9eb1461011957610091565b3661009157005b600080fd5b3480156100a257600080fd5b506100bd60048036038101906100b8919061062e565b610219565b005b3480156100cb57600080fd5b506100d461033c565b6040516100e1919061066a565b60405180910390f35b3480156100f657600080fd5b506100ff610362565b60405161011095949392919061069e565b60405180910390f35b34801561012557600080fd5b50610140600480360381019061013b919061072f565b6103a7565b005b34801561014e57600080fd5b5061015761056f565b604051610164919061066a565b60405180910390f35b34801561017957600080fd5b50610182610595565b60405161018f919061066a565b60405180910390f35b3480156101a457600080fd5b506101ad6105b9565b6040516101ba919061076f565b60405180910390f35b3480156101cf57600080fd5b506101d86105bf565b6040516101e5919061076f565b60405180910390f35b3480156101fa57600080fd5b506102036105c5565b604051610210919061076f565b60405180910390f35b600254421161025d576040517f08c379a000000000000000000000000000000000000000000000000000000000815260040161025490610833565b60405180910390fd5b3373ffffffffffffffffffffffffffffffffffffffff168173ffffffffffffffffffffffffffffffffffffffff16146102cb576040517f08c379a00000000000000000000000000000000000000000000000000000000081526004016102c2906108eb565b60405180910390fd5b60008060009054906101000a900473ffffffffffffffffffffffffffffffffffffffff1690508073ffffffffffffffffffffffffffffffffffffffff166108fc479081150290604051600060405180830381858888f19350505050158015610337573d6000803e3d6000fd5b505050565b600560009054906101000a900473ffffffffffffffffffffffffffffffffffffffff1681565b60008060008060008060009054906101000a900473ffffffffffffffffffffffffffffffffffffffff1660025460015447600354945094509450945094509091929394565b60025442116103eb576040517f08c379a00000000000000000000000000000000000000000000000000000000081526004016103e2906109a3565b60405180910390fd5b3373ffffffffffffffffffffffffffffffffffffffff168273ffffffffffffffffffffffffffffffffffffffff1614610459576040517f08c379a0000000000000000000000000000000000000000000000000000000008152600401610450906108eb565b60405180910390fd5b6000600560009054906101000a900473ffffffffffffffffffffffffffffffffffffffff1690508073ffffffffffffffffffffffffffffffffffffffff166108fc479081150290604051600060405180830381858888f193505050501580156104c6573d6000803e3d6000fd5b508173ffffffffffffffffffffffffffffffffffffffff1663a9059cbb600460009054906101000a900473ffffffffffffffffffffffffffffffffffffffff166003546040518363ffffffff1660e01b81526004016105269291906109c3565b6020604051808303816000875af1158015610545573d6000803e3d6000fd5b505050506040513d601f19601f820116820180604052508101906105699190610a24565b50505050565b600460009054906101000a900473ffffffffffffffffffffffffffffffffffffffff1681565b60008054906101000a900473ffffffffffffffffffffffffffffffffffffffff1681565b60035481565b60025481565b60015481565b600080fd5b600073ffffffffffffffffffffffffffffffffffffffff82169050919050565b60006105fb826105d0565b9050919050565b61060b816105f0565b811461061657600080fd5b50565b60008135905061062881610602565b92915050565b600060208284031215610644576106436105cb565b5b600061065284828501610619565b91505092915050565b610664816105f0565b82525050565b600060208201905061067f600083018461065b565b92915050565b6000819050919050565b61069881610685565b82525050565b600060a0820190506106b3600083018861065b565b6106c0602083018761068f565b6106cd604083018661068f565b6106da606083018561068f565b6106e7608083018461068f565b9695505050505050565b60006106fc826105f0565b9050919050565b61070c816106f1565b811461071757600080fd5b50565b60008135905061072981610703565b92915050565b60008060408385031215610746576107456105cb565b5b600061075485828601610619565b92505060206107658582860161071a565b9150509250929050565b6000602082019050610784600083018461068f565b92915050565b600082825260208201905092915050565b7f54686520636f6e7472616374206973206c6f636b65642e20596f752063616e6e60008201527f6f74206c6971756961746520796f7572206173736574732074696c6c2074686560208201527f206c6f636b20706572696f6420697320636f6d706c6574650000000000000000604082015250565b600061081d60588361078a565b91506108288261079b565b606082019050919050565b6000602082019050818103600083015261084c81610810565b9050919050565b7f596f7520617265206e6f7420746865206f776e65722e20596f7520617265206e60008201527f6f7420616c6c6f77656420746f2063616e63656c207468697320696e7665737460208201527f6d656e7400000000000000000000000000000000000000000000000000000000604082015250565b60006108d560448361078a565b91506108e082610853565b606082019050919050565b60006020820190508181036000830152610904816108c8565b9050919050565b7f54686520636f6e7472616374206973206c6f636b65642e20596f752063616e6e60008201527f6f74207374616b6520796f7572206173736574732074696c6c20746865206c6f60208201527f636b20706572696f6420697320636f6d706c6574650000000000000000000000604082015250565b600061098d60558361078a565b91506109988261090b565b606082019050919050565b600060208201905081810360008301526109bc81610980565b9050919050565b60006040820190506109d8600083018561065b565b6109e5602083018461068f565b9392505050565b60008115159050919050565b610a01816109ec565b8114610a0c57600080fd5b50565b600081519050610a1e816109f8565b92915050565b600060208284031215610a3a57610a396105cb565b5b6000610a4884828501610a0f565b9150509291505056fea26469706673582212209b3b84f34926ae08b132d03dc989b6f70a399165c95d334748bfb21a11fbbf8964736f6c634300080d0033",
  "immutableReferences": {},
  "source": "//SPDX-License-Identifier: UNLICENSED\r\n\r\npragma solidity >=0.4.0;\r\n\r\nimport \"./MindPay.sol\";\r\nimport \"./ReserveContract.sol\";\r\nimport \"./LiquidityContract.sol\";\r\n\r\ncontract TimeWallet{\r\n\r\n    address[] public reserve_investments;\r\n    address[] public liquid_investments;\r\n    uint256 public investedAmount;\r\n    address public owner;\r\n    uint256 public reserve_amount;\r\n    uint256 public liquidity_amount;\r\n    uint256 public token_balance; //current contract token balance\r\n    uint256 public token_amount; // tokens invested\r\n    uint256 public bonus_tokens;\r\n\r\n    MindPay MPYToken;\r\n    ReserveContract new_investment_reserve;\r\n    LiquidContract new_investment_liquidity;\r\n    \r\n    \r\n    constructor(uint256 _tokenamount, address _MindPayAddress) public payable {\r\n      owner = msg.sender;\r\n      investedAmount = msg.value;\r\n      token_amount = _tokenamount;\r\n      MPYToken = MindPay(_MindPayAddress);\r\n      new_investment_liquidity = new LiquidContract(msg.sender);\r\n      new_investment_reserve = new ReserveContract(msg.sender,token_balance,address(this), liquid_investments[0]);    \r\n    }\r\n\r\n    function processInvestment() public {       \r\n        reserve_amount = ((90 * investedAmount) / 100);\r\n        liquidity_amount = ((10 * investedAmount)/ 100);\r\n        // address newInvestment = createInvestment(token_amount);\r\n        transferReserveEther();\r\n        transferliquidAssets();\r\n        transferReserveTokens(MPYToken);\r\n    }\r\n\r\n    function transferReserveEther() public {\r\n        require(address(this).balance == reserve_amount,\"Error in calculating reserve amount\");\r\n        reserve_investments.push(payable(new_investment_reserve));\r\n        address payable _reserve = payable(new_investment_reserve);\r\n        _reserve.transfer(reserve_amount);\r\n    }\r\n\r\n    function transferReserveTokens(IERC20 MindPayToken) public {\r\n        require(token_amount > 0,\"Please enter the amount of tokens you want to buy\");\r\n        token_amount = token_amount + getBonusTokens();\r\n        token_balance = MindPayToken.balanceOf(address(this));\r\n        require(token_balance > token_amount,\"Not enough tokens in the reserve\");\r\n        MindPayToken.transfer(reserve_investments[0], token_amount);\r\n        // emit TransferSent(msg.sender,new_investment_reserve, token_amount);\r\n\r\n    }\r\n\r\n    function getBonusTokens() public returns(uint){\r\n        if( investedAmount > 1 * 10**18  &&  investedAmount < 5 * 10**18) {   // if else statement\r\n            bonus_tokens = ((10 * token_amount) / 100);\r\n            return bonus_tokens;\r\n        } else if( investedAmount > 5 * 10**18 ){\r\n            bonus_tokens = ((20 * token_amount) / 100);\r\n            return bonus_tokens;\r\n        } else {\r\n            bonus_tokens = 0;\r\n            return bonus_tokens;\r\n        }\r\n    }\r\n\r\n    function transferliquidAssets() public {\r\n        require(address(this).balance > liquidity_amount,\"Error in calculating Liquidity amount\");\r\n        liquid_investments.push(payable(new_investment_liquidity));\r\n        address payable _liquid = payable(new_investment_liquidity);\r\n        _liquid.transfer(liquidity_amount);\r\n    }\r\n\r\n    function getEtherBalance() public view returns(uint){\r\n        return address(this).balance;\r\n    }\r\n\r\n    function getTokenBalance(IERC20 MindPayToken) public view returns(uint){\r\n        MindPayToken.balanceOf(address(this));\r\n    }\r\n\r\n    function getReserveInvestmentContractBalance()public view returns(address , uint , uint , uint , uint){\r\n        return new_investment_reserve.viewBalance();\r\n    }\r\n\r\n    function getLiquidContractBalance()public view returns(address, uint, uint){\r\n        return new_investment_liquidity.viewBalance();\r\n    }\r\n\r\n    // function createInvestment(uint256 _tokenamount) public returns(address payable){\r\n    //         InvestmentContract new_investment_reserve = new InvestmentContract(msg.sender, _tokenamount);\r\n    //         investments.push(payable(new_investment_reserve));\r\n    //         return (payable(new_investment_reserve));\r\n    // }\r\n\r\n    function cancelInvestment()public returns(bool cancellation_success){\r\n            new_investment_reserve.cancelInvestment(owner);\r\n            return true;\r\n    }\r\n\r\n    function stakeInvestment()public returns(bool cancellation_success){\r\n            new_investment_reserve.stakeInvestment(owner, MPYToken);\r\n            return true;\r\n    }\r\n\r\n    receive() external payable{\r\n\r\n    }\r\n\r\n}\r\n\r\n\r\n",
  "sourcePath": "D:\\Work\\Code\\Blockchain\\Projects\\MindDeft\\contracts\\InvestmentTracker.sol",
  "compiler": {
    "name": "solc",
    "version": "0.8.13+commit.abaa5c0e.Emscripten.clang"
  },
  "schemaVersion": "3.4.4",
  "updatedAt": "2022-04-30T20:37:47.744Z",
  "devdoc": {
    "kind": "dev",
    "methods": {},
    "version": 1
  },
  "userdoc": {
    "kind": "user",
    "methods": {},
    "version": 1
  }
}